:100000000C942A000C9436000C9434000C943400A8
:100010000C9434000C9434000C9434000C94340090
:100020000C9434000C9454000C9434000C94340060
:100030000C9434000C9434000C9434000C94340070
:100040000C9434000C9434000C9434000C94340060
:100050000C94340011241FBECFE5D8E0DEBFCDBF25
:100060000E9464000C948A000C9400001F920F926E
:100070000FB60F9211248F939F9383EC99E0019711
:10008000F1F700C00000829908C08AE893EE9DBD98
:100090008CBD8EB583608EBDD89A9F918F910F9045
:1000A0000FBE0F901F9018951F920F920FB60F92D0
:1000B00011248F938EB58C7F8EBDD8988F910F9021
:1000C0000FBE0F901F901895F894D09A8A98929A24
:1000D0008FEF84BB85B7826085BF8BB780648BBF91
:1000E00089B7846089BF78948FEF85BB2FE936E8A4
:1000F00091E0215030409040E1F700C0000015BA77
:100100002FE936E891E0215030409040E1F700C0FF
:080110000000EBCFF894FFCFD3
:00000001FF
