S00A00005A322E737265638E
S11300000C942A000C9434000C9434000C943400A6
S11300100C9434000C9434000C9434000C9434008C
S11300200C9434000C9434000C9434000C9434007C
S11300300C9434000C9434000C9434000C9434006C
S11300400C9434000C9434000C9434000C9434005C
S11300500C94340011241FBECFE5D8E0DEBFCDBF21
S11300600E9436000C944B000C940000F8948D9A76
S11300708FB582688FBD8EB588618EBD8EB5836065
S11300808EBD8AEC92E297BD86BD88E99BE09BBD5C
S10D00908ABD7894FFCFF894FFCFE7
S9030000FC
